{
    "contractName": "Airline",
    "abi": [
        {
            "inputs": [],
            "stateMutability": "nonpayable",
            "type": "constructor"
        },
        {
            "anonymous": false,
            "inputs": [
                {
                    "indexed": true,
                    "internalType": "address",
                    "name": "customer",
                    "type": "address"
                },
                {
                    "indexed": false,
                    "internalType": "uint256",
                    "name": "price",
                    "type": "uint256"
                }
            ],
            "name": "FlightPurchased",
            "type": "event"
        },
        {
            "inputs": [
                {
                    "internalType": "uint256",
                    "name": "",
                    "type": "uint256"
                }
            ],
            "name": "flights",
            "outputs": [
                {
                    "internalType": "string",
                    "name": "name",
                    "type": "string"
                },
                {
                    "internalType": "uint256",
                    "name": "price",
                    "type": "uint256"
                }
            ],
            "stateMutability": "view",
            "type": "function"
        },
        {
            "inputs": [],
            "name": "owner",
            "outputs": [
                {
                    "internalType": "address",
                    "name": "",
                    "type": "address"
                }
            ],
            "stateMutability": "view",
            "type": "function"
        },
        {
            "inputs": [],
            "name": "sendMessage",
            "outputs": [],
            "stateMutability": "payable",
            "type": "function"
        }
    ],
    "bytecode": "60806040526706f05b59d3b2000060015534801561001c57600080fd5b50600080546001600160a01b031916331790556102a68061003e6000396000f3fe6080604052600436106100345760003560e01c806315ccf70f146100395780638da5cb5b14610070578063e5aed28a146100a8575b600080fd5b34801561004557600080fd5b506100596100543660046101bf565b6100b2565b6040516100679291906101d8565b60405180910390f35b34801561007c57600080fd5b50600054610090906001600160a01b031681565b6040516001600160a01b039091168152602001610067565b6100b061016e565b005b600281815481106100c257600080fd5b90600052602060002090600202016000915090508060000180546100e590610235565b80601f016020809104026020016040519081016040528092919081815260200182805461011190610235565b801561015e5780601f106101335761010080835404028352916020019161015e565b820191906000526020600020905b81548152906001019060200180831161014157829003601f168201915b5050505050908060010154905082565b34670de0b6b3a76400001461018257600080fd5b600080546040516001600160a01b03909116913480156108fc02929091818181858888f193505050501580156101bc573d6000803e3d6000fd5b50565b6000602082840312156101d157600080fd5b5035919050565b604081526000835180604084015260005b8181101561020657602081870181015160608684010152016101e9565b81811115610218576000606083860101525b50602083019390935250601f91909101601f191601606001919050565b600181811c9082168061024957607f821691505b6020821081141561026a57634e487b7160e01b600052602260045260246000fd5b5091905056fea2646970667358221220d9307073b8fa1e87548032e6525ed46b6e23df5736b77e974bdfe035fb487fa964736f6c634300080b0033",
    "sourcePath": "c:/Users/maxsa/OneDrive/Escritorio/CountryClick - Copy/contracts/Airline.sol",
    "compiler": {
        "name": "solc",
        "version": "0.8.11+commit.d7f03943"
    },
    "functionHashes": {
        "flights(uint256)": "15ccf70f",
        "owner()": "8da5cb5b",
        "sendMessage()": "e5aed28a"
    },
    "gasEstimates": {
        "creation": {
            "codeDepositCost": "135600",
            "executionCost": "46524",
            "totalCost": "182124"
        },
        "external": {
            "flights(uint256)": "infinite",
            "owner()": "2337",
            "sendMessage()": "infinite"
        }
    }
}