{
  "contractName": "DespertaMaxi",
  "abi": [
    {
      "inputs": [],
      "stateMutability": "nonpayable",
      "type": "constructor"
    },
    {
      "anonymous": false,
      "inputs": [
        {
          "indexed": true,
          "internalType": "address",
          "name": "customer",
          "type": "address"
        },
        {
          "indexed": false,
          "internalType": "uint256",
          "name": "price",
          "type": "uint256"
        }
      ],
      "name": "FlightPurchased",
      "type": "event"
    },
    {
      "inputs": [
        {
          "internalType": "uint256",
          "name": "",
          "type": "uint256"
        }
      ],
      "name": "flights",
      "outputs": [
        {
          "internalType": "string",
          "name": "name",
          "type": "string"
        },
        {
          "internalType": "uint256",
          "name": "price",
          "type": "uint256"
        }
      ],
      "stateMutability": "view",
      "type": "function",
      "constant": true
    },
    {
      "inputs": [],
      "name": "owner",
      "outputs": [
        {
          "internalType": "address",
          "name": "",
          "type": "address"
        }
      ],
      "stateMutability": "view",
      "type": "function",
      "constant": true
    },
    {
      "inputs": [],
      "name": "sendMessage",
      "outputs": [],
      "stateMutability": "payable",
      "type": "function",
      "payable": true
    }
  ],
  "bytecode": "0x60806040526706f05b59d3b2000060015534801561001c57600080fd5b50336000806101000a81548173ffffffffffffffffffffffffffffffffffffffff021916908373ffffffffffffffffffffffffffffffffffffffff16021790555061043c8061006c6000396000f3fe6080604052600436106100345760003560e01c806315ccf70f146100395780638da5cb5b14610077578063e5aed28a146100a2575b600080fd5b34801561004557600080fd5b50610060600480360381019061005b9190610244565b6100ac565b60405161006e929190610319565b60405180910390f35b34801561008357600080fd5b5061008c610168565b604051610099919061038a565b60405180910390f35b6100aa61018c565b005b600281815481106100bc57600080fd5b90600052602060002090600202016000915090508060000180546100df906103d4565b80601f016020809104026020016040519081016040528092919081815260200182805461010b906103d4565b80156101585780601f1061012d57610100808354040283529160200191610158565b820191906000526020600020905b81548152906001019060200180831161013b57829003601f168201915b5050505050908060010154905082565b60008054906101000a900473ffffffffffffffffffffffffffffffffffffffff1681565b670de0b6b3a764000034146101a057600080fd5b60008054906101000a900473ffffffffffffffffffffffffffffffffffffffff1673ffffffffffffffffffffffffffffffffffffffff166108fc349081150290604051600060405180830381858888f19350505050158015610206573d6000803e3d6000fd5b50565b600080fd5b6000819050919050565b6102218161020e565b811461022c57600080fd5b50565b60008135905061023e81610218565b92915050565b60006020828403121561025a57610259610209565b5b60006102688482850161022f565b91505092915050565b600081519050919050565b600082825260208201905092915050565b60005b838110156102ab578082015181840152602081019050610290565b838111156102ba576000848401525b50505050565b6000601f19601f8301169050919050565b60006102dc82610271565b6102e6818561027c565b93506102f681856020860161028d565b6102ff816102c0565b840191505092915050565b6103138161020e565b82525050565b6000604082019050818103600083015261033381856102d1565b9050610342602083018461030a565b9392505050565b600073ffffffffffffffffffffffffffffffffffffffff82169050919050565b600061037482610349565b9050919050565b61038481610369565b82525050565b600060208201905061039f600083018461037b565b92915050565b7f4e487b7100000000000000000000000000000000000000000000000000000000600052602260045260246000fd5b600060028204905060018216806103ec57607f821691505b60208210811415610400576103ff6103a5565b5b5091905056fea264697066735822122010025026c60b9fa020f9e1c7ec94a6f22277f4f274fd70e5089b9fadf5097cff64736f6c634300080a0033",
  "immutableReferences": {},
  "source": "// SPDX-License-Identifier: MIT\r\npragma solidity >=0.4.22 <0.9.0;\r\n\r\ncontract DespertaMaxi {\r\n\r\n    address public owner;\r\n\r\n    struct Customer {\r\n        uint loyaltyPoints;\r\n        uint totalMessagesSent;\r\n    }\r\n\r\n    struct Flight {\r\n        string name;\r\n        uint256 price;\r\n    }\r\n\r\n    uint etherPerPoint = 0.5 ether;\r\n\r\n    Flight[] public flights;\r\n\r\n    mapping(address => Customer) private customers;\r\n    // mapping(address => bool) private customersJoined;\r\n    // mapping(address => Flight[]) public customerFlights;\r\n    // mapping(address => uint) public customerTotalFlights;\r\n\r\n    event FlightPurchased(address indexed customer, uint price);\r\n\r\n    constructor() {\r\n        owner = msg.sender;\r\n        // flights.push(Flight(\"Tokio\", 4 ether));\r\n        // flights.push(Flight(\"Buenos Aires\", 3 ether));\r\n        // flights.push(Flight(\"Madrid\", 3 ether));\r\n    }\r\n\r\n    function sendMessage () public payable {\r\n        require(msg.value == 1 ether);\r\n        payable(owner).transfer(msg.value);\r\n    }\r\n    \r\n    // function addUser () public {\r\n    //     require(!customersJoined[msg.sender]);\r\n\r\n    // }\r\n\r\n    // function buyFlight (uint flightIndex) public payable {\r\n    //     Flight storage flight = flights[flightIndex];\r\n    //     require(msg.value == flight.price);\r\n\r\n    //     Customer storage customer = customers[msg.sender];\r\n    //     customer.loyaltyPoints += 5;\r\n    //     customer.totalFlights += 1;\r\n    //     customerFlights[msg.sender].push(flight);\r\n    //     customerTotalFlights[msg.sender] ++;\r\n\r\n    //     emit FlightPurchased(msg.sender, flight.price);\r\n    // }\r\n\r\n    // function totalFlights() public view returns(uint) {\r\n    //     return flights.length;\r\n    // }\r\n\r\n    // function redeemLoyaltyPoints() public {\r\n    //     Customer storage customer = customers[msg.sender];\r\n    //     uint etherToRefund = customer.loyaltyPoints * etherPerPoint;\r\n    //     payable(msg.sender).transfer(etherToRefund);\r\n    //     customer.loyaltyPoints = 0;\r\n    // }\r\n\r\n    // function getRefundableEther() public view returns (uint) {\r\n    //     return etherPerPoint * customers[msg.sender].loyaltyPoints;\r\n    // }\r\n\r\n    // function getAirlineBalance() public isOwner view returns (uint) {\r\n    //     address airlineAddress = owner;\r\n    //     return airlineAddress.balance;\r\n    // }\r\n\r\n    modifier isOwner() {\r\n        require(msg.sender == owner);\r\n        _;\r\n    }\r\n}",
  "sourcePath": "C:\\Users\\maxsa\\OneDrive\\Escritorio\\CountryClick - Copy\\contracts\\DespertaMaxi.sol",
  "compiler": {
    "name": "solc",
    "version": "0.8.10+commit.fc410830.Emscripten.clang"
  },
  "schemaVersion": "3.4.4",
  "updatedAt": "2022-01-11T01:00:22.198Z",
  "networkType": "ethereum",
  "devdoc": {
    "kind": "dev",
    "methods": {},
    "version": 1
  },
  "userdoc": {
    "kind": "user",
    "methods": {},
    "version": 1
  }
}